{
  "contractName": "ExampleTokenCrowdsale",
  "abi": [
    {
      "constant": true,
      "inputs": [],
      "name": "rate",
      "outputs": [
        {
          "name": "",
          "type": "uint256"
        }
      ],
      "payable": false,
      "stateMutability": "view",
      "type": "function"
    },
    {
      "constant": true,
      "inputs": [],
      "name": "cap",
      "outputs": [
        {
          "name": "",
          "type": "uint256"
        }
      ],
      "payable": false,
      "stateMutability": "view",
      "type": "function"
    },
    {
      "constant": true,
      "inputs": [],
      "name": "weiRaised",
      "outputs": [
        {
          "name": "",
          "type": "uint256"
        }
      ],
      "payable": false,
      "stateMutability": "view",
      "type": "function"
    },
    {
      "constant": true,
      "inputs": [
        {
          "name": "",
          "type": "address"
        }
      ],
      "name": "contributions",
      "outputs": [
        {
          "name": "",
          "type": "uint256"
        }
      ],
      "payable": false,
      "stateMutability": "view",
      "type": "function"
    },
    {
      "constant": true,
      "inputs": [],
      "name": "capReached",
      "outputs": [
        {
          "name": "",
          "type": "bool"
        }
      ],
      "payable": false,
      "stateMutability": "view",
      "type": "function"
    },
    {
      "constant": true,
      "inputs": [],
      "name": "wallet",
      "outputs": [
        {
          "name": "",
          "type": "address"
        }
      ],
      "payable": false,
      "stateMutability": "view",
      "type": "function"
    },
    {
      "constant": true,
      "inputs": [],
      "name": "investorMinCap",
      "outputs": [
        {
          "name": "",
          "type": "uint256"
        }
      ],
      "payable": false,
      "stateMutability": "view",
      "type": "function"
    },
    {
      "constant": false,
      "inputs": [
        {
          "name": "_beneficiary",
          "type": "address"
        }
      ],
      "name": "buyTokens",
      "outputs": [],
      "payable": true,
      "stateMutability": "payable",
      "type": "function"
    },
    {
      "constant": true,
      "inputs": [],
      "name": "investorHardCap",
      "outputs": [
        {
          "name": "",
          "type": "uint256"
        }
      ],
      "payable": false,
      "stateMutability": "view",
      "type": "function"
    },
    {
      "constant": true,
      "inputs": [],
      "name": "token",
      "outputs": [
        {
          "name": "",
          "type": "address"
        }
      ],
      "payable": false,
      "stateMutability": "view",
      "type": "function"
    },
    {
      "inputs": [
        {
          "name": "_rate",
          "type": "uint256"
        },
        {
          "name": "_wallet",
          "type": "address"
        },
        {
          "name": "_token",
          "type": "address"
        },
        {
          "name": "_cap",
          "type": "uint256"
        }
      ],
      "payable": false,
      "stateMutability": "nonpayable",
      "type": "constructor"
    },
    {
      "payable": true,
      "stateMutability": "payable",
      "type": "fallback"
    },
    {
      "anonymous": false,
      "inputs": [
        {
          "indexed": true,
          "name": "purchaser",
          "type": "address"
        },
        {
          "indexed": true,
          "name": "beneficiary",
          "type": "address"
        },
        {
          "indexed": false,
          "name": "value",
          "type": "uint256"
        },
        {
          "indexed": false,
          "name": "amount",
          "type": "uint256"
        }
      ],
      "name": "TokenPurchase",
      "type": "event"
    },
    {
      "constant": false,
      "inputs": [],
      "name": "getTokensLeft",
      "outputs": [
        {
          "name": "",
          "type": "uint256"
        }
      ],
      "payable": false,
      "stateMutability": "nonpayable",
      "type": "function"
    }
  ],
  "bytecode": "0x6080604052674563918244f400006005556802b5e3af16b1880000600655600060075534801561002e57600080fd5b506040516080806109ce833981018060405281019080805190602001909291908051906020019092919080519060200190929190805190602001909291905050508084848460008311151561008257600080fd5b600073ffffffffffffffffffffffffffffffffffffffff168273ffffffffffffffffffffffffffffffffffffffff16141515156100be57600080fd5b600073ffffffffffffffffffffffffffffffffffffffff168173ffffffffffffffffffffffffffffffffffffffff16141515156100fa57600080fd5b8260028190555081600160006101000a81548173ffffffffffffffffffffffffffffffffffffffff021916908373ffffffffffffffffffffffffffffffffffffffff160217905550806000806101000a81548173ffffffffffffffffffffffffffffffffffffffff021916908373ffffffffffffffffffffffffffffffffffffffff16021790555050505060008111151561019457600080fd5b80600481905550505050505061081f806101af6000396000f3006080604052600436106100af576000357c0100000000000000000000000000000000000000000000000000000000900463ffffffff1680632c4e722e146100ba578063355274ea146100e55780634042b66f1461011057806342e94c901461013b5780634f93594514610192578063521eb273146101c1578063b25d7f5414610218578063de5f986614610243578063ec8ac4d81461026e578063ed5db874146102a4578063fc0c546a146102cf575b6100b833610326565b005b3480156100c657600080fd5b506100cf6103f4565b6040518082815260200191505060405180910390f35b3480156100f157600080fd5b506100fa6103fa565b6040518082815260200191505060405180910390f35b34801561011c57600080fd5b50610125610400565b6040518082815260200191505060405180910390f35b34801561014757600080fd5b5061017c600480360381019080803573ffffffffffffffffffffffffffffffffffffffff169060200190929190505050610406565b6040518082815260200191505060405180910390f35b34801561019e57600080fd5b506101a761041e565b604051808215151515815260200191505060405180910390f35b3480156101cd57600080fd5b506101d661042d565b604051808273ffffffffffffffffffffffffffffffffffffffff1673ffffffffffffffffffffffffffffffffffffffff16815260200191505060405180910390f35b34801561022457600080fd5b5061022d610453565b6040518082815260200191505060405180910390f35b34801561024f57600080fd5b50610258610459565b6040518082815260200191505060405180910390f35b6102a2600480360381019080803573ffffffffffffffffffffffffffffffffffffffff169060200190929190505050610326565b005b3480156102b057600080fd5b506102b961046c565b6040518082815260200191505060405180910390f35b3480156102db57600080fd5b506102e4610472565b604051808273ffffffffffffffffffffffffffffffffffffffff1673ffffffffffffffffffffffffffffffffffffffff16815260200191505060405180910390f35b6000803491506103368383610497565b61033f8261056f565b90506103568260035461058d90919063ffffffff16565b60038190555061036683826105a9565b8273ffffffffffffffffffffffffffffffffffffffff163373ffffffffffffffffffffffffffffffffffffffff167f623b3804fa71d67900d064613da8f94b9617215ee90799290593e1745087ad188484604051808381526020018281526020019250505060405180910390a36103dd83836105b7565b6103e56105bb565b6103ef8383610626565b505050565b60025481565b60045481565b60035481565b60086020528060005260406000206000915090505481565b60006004546003541015905090565b600160009054906101000a900473ffffffffffffffffffffffffffffffffffffffff1681565b60055481565b6000806007546004540390508091505090565b60065481565b6000809054906101000a900473ffffffffffffffffffffffffffffffffffffffff1681565b6000806104a4848461062a565b600860008573ffffffffffffffffffffffffffffffffffffffff1673ffffffffffffffffffffffffffffffffffffffff1681526020019081526020016000205491506104f9838361058d90919063ffffffff16565b9050600554811015801561050f57506006548111155b151561051a57600080fd5b80600860008673ffffffffffffffffffffffffffffffffffffffff1673ffffffffffffffffffffffffffffffffffffffff16815260200190815260200160002081905550806007540160078190555050505050565b60006105866002548361065d90919063ffffffff16565b9050919050565b600081830190508281101515156105a057fe5b80905092915050565b6105b38282610695565b5050565b5050565b600160009054906101000a900473ffffffffffffffffffffffffffffffffffffffff1673ffffffffffffffffffffffffffffffffffffffff166108fc349081150290604051600060405180830381858888f19350505050158015610623573d6000803e3d6000fd5b50565b5050565b61063482826107a3565b60045461064c8260035461058d90919063ffffffff16565b1115151561065957600080fd5b5050565b600080831415610670576000905061068f565b818302905081838281151561068157fe5b0414151561068b57fe5b8090505b92915050565b6000809054906101000a900473ffffffffffffffffffffffffffffffffffffffff1673ffffffffffffffffffffffffffffffffffffffff166340c10f1983836040518363ffffffff167c0100000000000000000000000000000000000000000000000000000000028152600401808373ffffffffffffffffffffffffffffffffffffffff1673ffffffffffffffffffffffffffffffffffffffff16815260200182815260200192505050602060405180830381600087803b15801561075957600080fd5b505af115801561076d573d6000803e3d6000fd5b505050506040513d602081101561078357600080fd5b8101908080519060200190929190505050151561079f57600080fd5b5050565b600073ffffffffffffffffffffffffffffffffffffffff168273ffffffffffffffffffffffffffffffffffffffff16141515156107df57600080fd5b600081141515156107ef57600080fd5b50505600a165627a7a7230582084283f832999147117a05321fb3f2bab6cc8d0d89935d53f680a73fc9c3750070029",
  "source": "pragma solidity ^0.4.0;\r\n\r\nimport \"openzeppelin-solidity/contracts/crowdsale/Crowdsale.sol\";\r\nimport \"openzeppelin-solidity/contracts/crowdsale/emission/MintedCrowdsale.sol\";\r\nimport \"openzeppelin-solidity/contracts/crowdsale/validation/CappedCrowdsale.sol\";\r\n\r\ncontract ExampleTokenCrowdsale is Crowdsale, MintedCrowdsale, CappedCrowdsale{\r\n\r\n    //BEFORE : minimum investor Contribution - 2000000000000000000\r\n    //AFTER : minimum investor Contribution - 5000000000000000000\r\n    uint256 public investorMinCap = 5000000000000000000;\r\n    uint256 public investorHardCap = 50000000000000000000;\r\n\r\n    uint256 totalSpent = 0;\r\n\r\n    mapping(address => uint256) public contributions;\r\n\r\n    constructor(uint256 _rate,\r\n        address _wallet,\r\n        ERC20 _token,\r\n        uint256 _cap)\r\n    Crowdsale(_rate, _wallet, _token)\r\n    CappedCrowdsale(_cap)\r\n    public{\r\n    }\r\n    function getTokensLeft() returns (uint256) {\r\n        uint256 totalTokensLeft = cap - totalSpent;\r\n        return totalTokensLeft;\r\n    }\r\n\r\n    function _preValidatePurchase(\r\n        address _beneficiary,\r\n        uint256 _weiAmount\r\n    )\r\n    internal\r\n\r\n\r\n\r\n    {\r\n        super._preValidatePurchase(_beneficiary, _weiAmount);\r\n        uint256 _existingContribution = contributions[_beneficiary];\r\n        uint256 _newContribution = _existingContribution.add(_weiAmount);\r\n        require(_newContribution >= investorMinCap && _newContribution <= investorHardCap);\r\n        contributions[_beneficiary] = _newContribution;\r\n        totalSpent = totalSpent + _newContribution;\r\n\r\n    }\r\n\r\n\r\n}",
  "sourcePath": "C:\\Users\\Benson\\CCS\\contracts\\ExampleTokenCrowdsale.sol",
  "compiler": {
    "name": "solc",
    "version": "0.4.25+commit.59dbf8f1.Emscripten.clang"
  },
  "schemaVersion": "2.0.2",
  "updatedAt": "2019-03-14T00:58:17.421Z"
}